{
  "contractName": "DeStore",
  "abi": [
    {
      "inputs": [],
      "stateMutability": "nonpayable",
      "type": "constructor"
    },
    {
      "anonymous": false,
      "inputs": [
        {
          "components": [
            {
              "internalType": "bytes32",
              "name": "appId",
              "type": "bytes32"
            },
            {
              "internalType": "string",
              "name": "name",
              "type": "string"
            },
            {
              "internalType": "string",
              "name": "tagLine",
              "type": "string"
            },
            {
              "internalType": "string",
              "name": "description",
              "type": "string"
            },
            {
              "internalType": "string",
              "name": "icon",
              "type": "string"
            },
            {
              "internalType": "string",
              "name": "apkFile",
              "type": "string"
            },
            {
              "internalType": "string",
              "name": "iosFile",
              "type": "string"
            },
            {
              "internalType": "string[]",
              "name": "images",
              "type": "string[]"
            }
          ],
          "indexed": false,
          "internalType": "struct DeStore.App",
          "name": "RegisteredApp",
          "type": "tuple"
        }
      ],
      "name": "NewApp",
      "type": "event"
    },
    {
      "inputs": [
        {
          "internalType": "string",
          "name": "_name",
          "type": "string"
        },
        {
          "internalType": "string",
          "name": "_tagLine",
          "type": "string"
        },
        {
          "internalType": "string",
          "name": "_description",
          "type": "string"
        },
        {
          "internalType": "string",
          "name": "_icon",
          "type": "string"
        },
        {
          "internalType": "string",
          "name": "_apkFile",
          "type": "string"
        },
        {
          "internalType": "string",
          "name": "_iosFile",
          "type": "string"
        },
        {
          "internalType": "string[]",
          "name": "_images",
          "type": "string[]"
        }
      ],
      "name": "addApplication",
      "outputs": [],
      "stateMutability": "nonpayable",
      "type": "function"
    },
    {
      "inputs": [],
      "name": "getApplications",
      "outputs": [
        {
          "internalType": "bytes32[]",
          "name": "",
          "type": "bytes32[]"
        }
      ],
      "stateMutability": "view",
      "type": "function",
      "constant": true
    },
    {
      "inputs": [],
      "name": "getUserApplications",
      "outputs": [
        {
          "internalType": "bytes32[]",
          "name": "",
          "type": "bytes32[]"
        }
      ],
      "stateMutability": "view",
      "type": "function",
      "constant": true
    },
    {
      "inputs": [
        {
          "internalType": "bytes32",
          "name": "_appId",
          "type": "bytes32"
        }
      ],
      "name": "getAppDetails",
      "outputs": [
        {
          "components": [
            {
              "internalType": "bytes32",
              "name": "appId",
              "type": "bytes32"
            },
            {
              "internalType": "string",
              "name": "name",
              "type": "string"
            },
            {
              "internalType": "string",
              "name": "tagLine",
              "type": "string"
            },
            {
              "internalType": "string",
              "name": "description",
              "type": "string"
            },
            {
              "internalType": "string",
              "name": "icon",
              "type": "string"
            },
            {
              "internalType": "string",
              "name": "apkFile",
              "type": "string"
            },
            {
              "internalType": "string",
              "name": "iosFile",
              "type": "string"
            },
            {
              "internalType": "string[]",
              "name": "images",
              "type": "string[]"
            }
          ],
          "internalType": "struct DeStore.App",
          "name": "",
          "type": "tuple"
        }
      ],
      "stateMutability": "view",
      "type": "function",
      "constant": true
    },
    {
      "inputs": [
        {
          "internalType": "bytes32",
          "name": "_appId",
          "type": "bytes32"
        }
      ],
      "name": "getAppImages",
      "outputs": [
        {
          "internalType": "string[]",
          "name": "",
          "type": "string[]"
        }
      ],
      "stateMutability": "view",
      "type": "function",
      "constant": true
    }
  ],
  "bytecode": "0x608060405234801561001057600080fd5b50612127806100206000396000f3fe608060405234801561001057600080fd5b50600436106100575760003560e01c80630a1b45b81461005c57806343900e781461008c5780634c2ad197146100aa5780638dfb7e4a146100da578063ca3b9f4a146100f6575b600080fd5b6100766004803603810190610071919061156b565b610114565b6040516100839190611b9b565b60405180910390f35b610094610203565b6040516100a19190611b79565b60405180910390f35b6100c460048036038101906100bf919061156b565b61025b565b6040516100d19190611c9d565b60405180910390f35b6100f460048036038101906100ef9190611598565b6106d8565b005b6100fe6111e7565b60405161010b9190611b79565b60405180910390f35b606060016000838152602001908152602001600020600701805480602002602001604051908101604052809291908181526020016000905b828210156101f857838290600052602060002001805461016b90611e48565b80601f016020809104026020016040519081016040528092919081815260200182805461019790611e48565b80156101e45780601f106101b9576101008083540402835291602001916101e4565b820191906000526020600020905b8154815290600101906020018083116101c757829003601f168201915b50505050508152602001906001019061014c565b505050509050919050565b6060600280548060200260200160405190810160405280929190818152602001828054801561025157602002820191906000526020600020905b81548152602001906001019080831161023d575b5050505050905090565b61026361127b565b60016000838152602001908152602001600020604051806101000160405290816000820154815260200160018201805461029c90611e48565b80601f01602080910402602001604051908101604052809291908181526020018280546102c890611e48565b80156103155780601f106102ea57610100808354040283529160200191610315565b820191906000526020600020905b8154815290600101906020018083116102f857829003601f168201915b5050505050815260200160028201805461032e90611e48565b80601f016020809104026020016040519081016040528092919081815260200182805461035a90611e48565b80156103a75780601f1061037c576101008083540402835291602001916103a7565b820191906000526020600020905b81548152906001019060200180831161038a57829003601f168201915b505050505081526020016003820180546103c090611e48565b80601f01602080910402602001604051908101604052809291908181526020018280546103ec90611e48565b80156104395780601f1061040e57610100808354040283529160200191610439565b820191906000526020600020905b81548152906001019060200180831161041c57829003601f168201915b5050505050815260200160048201805461045290611e48565b80601f016020809104026020016040519081016040528092919081815260200182805461047e90611e48565b80156104cb5780601f106104a0576101008083540402835291602001916104cb565b820191906000526020600020905b8154815290600101906020018083116104ae57829003601f168201915b505050505081526020016005820180546104e490611e48565b80601f016020809104026020016040519081016040528092919081815260200182805461051090611e48565b801561055d5780601f106105325761010080835404028352916020019161055d565b820191906000526020600020905b81548152906001019060200180831161054057829003601f168201915b5050505050815260200160068201805461057690611e48565b80601f01602080910402602001604051908101604052809291908181526020018280546105a290611e48565b80156105ef5780601f106105c4576101008083540402835291602001916105ef565b820191906000526020600020905b8154815290600101906020018083116105d257829003601f168201915b5050505050815260200160078201805480602002602001604051908101604052809291908181526020016000905b828210156106c957838290600052602060002001805461063c90611e48565b80601f016020809104026020016040519081016040528092919081815260200182805461066890611e48565b80156106b55780601f1061068a576101008083540402835291602001916106b5565b820191906000526020600020905b81548152906001019060200180831161069857829003601f168201915b50505050508152602001906001019061061d565b50505050815250509050919050565b6040516020016106e790611b64565b604051602081830303815290604052805190602001208760405160200161070e9190611b0f565b604051602081830303815290604052805190602001201415610765576040517f08c379a000000000000000000000000000000000000000000000000000000000815260040161075c90611c3d565b60405180910390fd5b60405160200161077490611b64565b604051602081830303815290604052805190602001208660405160200161079b9190611b0f565b6040516020818303038152906040528051906020012014156107f2576040517f08c379a00000000000000000000000000000000000000000000000000000000081526004016107e990611bdd565b60405180910390fd5b60405160200161080190611b64565b60405160208183030381529060405280519060200120856040516020016108289190611b0f565b60405160208183030381529060405280519060200120141561087f576040517f08c379a000000000000000000000000000000000000000000000000000000000815260040161087690611c1d565b60405180910390fd5b60405160200161088e90611b64565b60405160208183030381529060405280519060200120846040516020016108b59190611b0f565b60405160208183030381529060405280519060200120141561090c576040517f08c379a000000000000000000000000000000000000000000000000000000000815260040161090390611bfd565b60405180910390fd5b6000878787876040516020016109259493929190611b26565b60405160208183030381529060405280519060200120905060405160200161094c90611b64565b60405160208183030381529060405280519060200120846040516020016109739190611b0f565b604051602081830303815290604052805190602001201415806109e057506040516020016109a090611b64565b60405160208183030381529060405280519060200120836040516020016109c79190611b0f565b6040516020818303038152906040528051906020012014155b610a1f576040517f08c379a0000000000000000000000000000000000000000000000000000000008152600401610a1690611c5d565b60405180910390fd5b60008251118015610a955750604051602001610a3a90611b64565b6040516020818303038152906040528051906020012082600081518110610a6457610a63611ee4565b5b6020026020010151604051602001610a7c9190611b0f565b6040516020818303038152906040528051906020012014155b610ad4576040517f08c379a0000000000000000000000000000000000000000000000000000000008152600401610acb90611bbd565b60405180910390fd5b6000600160008381526020019081526020016000206040518061010001604052908160008201548152602001600182018054610b0f90611e48565b80601f0160208091040260200160405190810160405280929190818152602001828054610b3b90611e48565b8015610b885780601f10610b5d57610100808354040283529160200191610b88565b820191906000526020600020905b815481529060010190602001808311610b6b57829003601f168201915b50505050508152602001600282018054610ba190611e48565b80601f0160208091040260200160405190810160405280929190818152602001828054610bcd90611e48565b8015610c1a5780601f10610bef57610100808354040283529160200191610c1a565b820191906000526020600020905b815481529060010190602001808311610bfd57829003601f168201915b50505050508152602001600382018054610c3390611e48565b80601f0160208091040260200160405190810160405280929190818152602001828054610c5f90611e48565b8015610cac5780601f10610c8157610100808354040283529160200191610cac565b820191906000526020600020905b815481529060010190602001808311610c8f57829003601f168201915b50505050508152602001600482018054610cc590611e48565b80601f0160208091040260200160405190810160405280929190818152602001828054610cf190611e48565b8015610d3e5780601f10610d1357610100808354040283529160200191610d3e565b820191906000526020600020905b815481529060010190602001808311610d2157829003601f168201915b50505050508152602001600582018054610d5790611e48565b80601f0160208091040260200160405190810160405280929190818152602001828054610d8390611e48565b8015610dd05780601f10610da557610100808354040283529160200191610dd0565b820191906000526020600020905b815481529060010190602001808311610db357829003601f168201915b50505050508152602001600682018054610de990611e48565b80601f0160208091040260200160405190810160405280929190818152602001828054610e1590611e48565b8015610e625780601f10610e3757610100808354040283529160200191610e62565b820191906000526020600020905b815481529060010190602001808311610e4557829003601f168201915b5050505050815260200160078201805480602002602001604051908101604052809291908181526020016000905b82821015610f3c578382906000526020600020018054610eaf90611e48565b80601f0160208091040260200160405190810160405280929190818152602001828054610edb90611e48565b8015610f285780601f10610efd57610100808354040283529160200191610f28565b820191906000526020600020905b815481529060010190602001808311610f0b57829003601f168201915b505050505081526020019060010190610e90565b5050505081525050905081604051602001610f579190611af4565b604051602081830303815290604052805190602001208160000151604051602001610f829190611af4565b604051602081830303815290604052805190602001201415610fd9576040517f08c379a0000000000000000000000000000000000000000000000000000000008152600401610fd090611c7d565b60405180910390fd5b610fe161127b565b82816000018181525050898160200181905250888160400181905250878160600181905250868160800181905250858160a00181905250848160c00181905250838160e0018190525080600160008581526020019081526020016000206000820151816000015560208201518160010190805190602001906110649291906112c3565b5060408201518160020190805190602001906110819291906112c3565b50606082015181600301908051906020019061109e9291906112c3565b5060808201518160040190805190602001906110bb9291906112c3565b5060a08201518160050190805190602001906110d89291906112c3565b5060c08201518160060190805190602001906110f59291906112c3565b5060e0820151816007019080519060200190611112929190611349565b509050506000803373ffffffffffffffffffffffffffffffffffffffff1673ffffffffffffffffffffffffffffffffffffffff16815260200190815260200160002083908060018154018082558091505060019003906000526020600020016000909190919091505560028390806001815401808255809150506001900390600052602060002001600090919091909150557f9e8a7b86e0116a8384ce7a609aba14ee9d23f951721b8269a47e4592eac037eb816040516111d39190611c9d565b60405180910390a150505050505050505050565b60606000803373ffffffffffffffffffffffffffffffffffffffff1673ffffffffffffffffffffffffffffffffffffffff16815260200190815260200160002080548060200260200160405190810160405280929190818152602001828054801561127157602002820191906000526020600020905b81548152602001906001019080831161125d575b5050505050905090565b60405180610100016040528060008019168152602001606081526020016060815260200160608152602001606081526020016060815260200160608152602001606081525090565b8280546112cf90611e48565b90600052602060002090601f0160209004810192826112f15760008555611338565b82601f1061130a57805160ff1916838001178555611338565b82800160010185558215611338579182015b8281111561133757825182559160200191906001019061131c565b5b50905061134591906113a9565b5090565b828054828255906000526020600020908101928215611398579160200282015b828111156113975782518290805190602001906113879291906112c3565b5091602001919060010190611369565b5b5090506113a591906113c6565b5090565b5b808211156113c25760008160009055506001016113aa565b5090565b5b808211156113e657600081816113dd91906113ea565b506001016113c7565b5090565b5080546113f690611e48565b6000825580601f106114085750611427565b601f01602090049060005260206000209081019061142691906113a9565b5b50565b600061143d61143884611ce4565b611cbf565b905080838252602082019050828560208602820111156114605761145f611f47565b5b60005b858110156114ae57813567ffffffffffffffff81111561148657611485611f42565b5b808601611493898261153d565b85526020850194506020840193505050600181019050611463565b5050509392505050565b60006114cb6114c684611d10565b611cbf565b9050828152602081018484840111156114e7576114e6611f4c565b5b6114f2848285611e06565b509392505050565b600082601f83011261150f5761150e611f42565b5b813561151f84826020860161142a565b91505092915050565b600081359050611537816120da565b92915050565b600082601f83011261155257611551611f42565b5b81356115628482602086016114b8565b91505092915050565b60006020828403121561158157611580611f56565b5b600061158f84828501611528565b91505092915050565b600080600080600080600060e0888a0312156115b7576115b6611f56565b5b600088013567ffffffffffffffff8111156115d5576115d4611f51565b5b6115e18a828b0161153d565b975050602088013567ffffffffffffffff81111561160257611601611f51565b5b61160e8a828b0161153d565b965050604088013567ffffffffffffffff81111561162f5761162e611f51565b5b61163b8a828b0161153d565b955050606088013567ffffffffffffffff81111561165c5761165b611f51565b5b6116688a828b0161153d565b945050608088013567ffffffffffffffff81111561168957611688611f51565b5b6116958a828b0161153d565b93505060a088013567ffffffffffffffff8111156116b6576116b5611f51565b5b6116c28a828b0161153d565b92505060c088013567ffffffffffffffff8111156116e3576116e2611f51565b5b6116ef8a828b016114fa565b91505092959891949750929550565b600061170a8383611872565b60208301905092915050565b60006117228383611898565b905092915050565b600061173582611d61565b61173f8185611d9c565b935061174a83611d41565b8060005b8381101561177b57815161176288826116fe565b975061176d83611d82565b92505060018101905061174e565b5085935050505092915050565b600061179382611d6c565b61179d8185611dad565b9350836020820285016117af85611d51565b8060005b858110156117eb57848403895281516117cc8582611716565b94506117d783611d8f565b925060208a019950506001810190506117b3565b50829750879550505050505092915050565b600061180882611d6c565b6118128185611dbe565b93508360208202850161182485611d51565b8060005b8581101561186057848403895281516118418582611716565b945061184c83611d8f565b925060208a01995050600181019050611828565b50829750879550505050505092915050565b61187b81611dfc565b82525050565b61189261188d82611dfc565b611eab565b82525050565b60006118a382611d77565b6118ad8185611dcf565b93506118bd818560208601611e15565b6118c681611f5b565b840191505092915050565b60006118dc82611d77565b6118e68185611df1565b93506118f6818560208601611e15565b80840191505092915050565b600061190f601c83611de0565b915061191a82611f6c565b602082019050919050565b6000611932601d83611de0565b915061193d82611f95565b602082019050919050565b6000611955601a83611de0565b915061196082611fbe565b602082019050919050565b6000611978602183611de0565b915061198382611fe7565b604082019050919050565b600061199b601a83611de0565b91506119a682612036565b602082019050919050565b60006119be602183611de0565b91506119c98261205f565b604082019050919050565b60006119e1600083611df1565b91506119ec826120ae565b600082019050919050565b6000611a04601883611de0565b9150611a0f826120b1565b602082019050919050565b600061010083016000830151611a336000860182611872565b5060208301518482036020860152611a4b8282611898565b91505060408301518482036040860152611a658282611898565b91505060608301518482036060860152611a7f8282611898565b91505060808301518482036080860152611a998282611898565b91505060a083015184820360a0860152611ab38282611898565b91505060c083015184820360c0860152611acd8282611898565b91505060e083015184820360e0860152611ae78282611788565b9150508091505092915050565b6000611b008284611881565b60208201915081905092915050565b6000611b1b82846118d1565b915081905092915050565b6000611b3282876118d1565b9150611b3e82866118d1565b9150611b4a82856118d1565b9150611b5682846118d1565b915081905095945050505050565b6000611b6f826119d4565b9150819050919050565b60006020820190508181036000830152611b93818461172a565b905092915050565b60006020820190508181036000830152611bb581846117fd565b905092915050565b60006020820190508181036000830152611bd681611902565b9050919050565b60006020820190508181036000830152611bf681611925565b9050919050565b60006020820190508181036000830152611c1681611948565b9050919050565b60006020820190508181036000830152611c368161196b565b9050919050565b60006020820190508181036000830152611c568161198e565b9050919050565b60006020820190508181036000830152611c76816119b1565b9050919050565b60006020820190508181036000830152611c96816119f7565b9050919050565b60006020820190508181036000830152611cb78184611a1a565b905092915050565b6000611cc9611cda565b9050611cd58282611e7a565b919050565b6000604051905090565b600067ffffffffffffffff821115611cff57611cfe611f13565b5b602082029050602081019050919050565b600067ffffffffffffffff821115611d2b57611d2a611f13565b5b611d3482611f5b565b9050602081019050919050565b6000819050602082019050919050565b6000819050602082019050919050565b600081519050919050565b600081519050919050565b600081519050919050565b6000602082019050919050565b6000602082019050919050565b600082825260208201905092915050565b600082825260208201905092915050565b600082825260208201905092915050565b600082825260208201905092915050565b600082825260208201905092915050565b600081905092915050565b6000819050919050565b82818337600083830152505050565b60005b83811015611e33578082015181840152602081019050611e18565b83811115611e42576000848401525b50505050565b60006002820490506001821680611e6057607f821691505b60208210811415611e7457611e73611eb5565b5b50919050565b611e8382611f5b565b810181811067ffffffffffffffff82111715611ea257611ea1611f13565b5b80604052505050565b6000819050919050565b7f4e487b7100000000000000000000000000000000000000000000000000000000600052602260045260246000fd5b7f4e487b7100000000000000000000000000000000000000000000000000000000600052603260045260246000fd5b7f4e487b7100000000000000000000000000000000000000000000000000000000600052604160045260246000fd5b600080fd5b600080fd5b600080fd5b600080fd5b600080fd5b6000601f19601f8301169050919050565b7f43616e6e6f74206861766520656d70747920696d616765206c69737400000000600082015250565b7f43616e6e6f74206861766520656d70747920617070207461676c696e65000000600082015250565b7f43616e6e6f74206861766520656d707479206170702069636f6e000000000000600082015250565b7f43616e6e6f74206861766520656d70747920617070206465736372697074696f60008201527f6e00000000000000000000000000000000000000000000000000000000000000602082015250565b7f43616e6e6f74206861766520656d70747920617070206e616d65000000000000600082015250565b7f43616e6e6f74206861766520656d7074792061706b206f7220696f732066696c60008201527f6500000000000000000000000000000000000000000000000000000000000000602082015250565b50565b7f41707020696420616c726561647920617661696c61626c650000000000000000600082015250565b6120e381611dfc565b81146120ee57600080fd5b5056fea2646970667358221220fbc06e4bf16cc86f6f083667154e1d95cbacf0484395f406d187e9a75593b87e64736f6c63430008060033",
  "immutableReferences": {},
  "source": "// SPDX-License-Identifier: GPL-3.0\r\n\r\npragma solidity >=0.7.0 <0.9.0;\r\n\r\ncontract DeStore {\r\n    \r\n    constructor() {}\r\n    \r\n    /*\r\n    * appId is ipfs hash for unique metadata\r\n    * name, tagline, description, icon\r\n    */\r\n    struct App {\r\n        bytes32 appId;\r\n        string name;\r\n        string tagLine;\r\n        string description;\r\n        string icon;\r\n        string apkFile;\r\n        string iosFile;\r\n        string[] images;\r\n    }\r\n    \r\n    mapping(address => bytes32[]) private userApps;\r\n    \r\n    mapping(bytes32 => App) private idToApp;\r\n    \r\n    bytes32[] private allApps;\r\n\r\n    event NewApp(App RegisteredApp);\r\n    \r\n    function addApplication(string memory _name, string memory _tagLine, string memory _description, string memory _icon, string memory _apkFile, string memory _iosFile, string[] memory _images) public {\r\n        require(keccak256(abi.encodePacked(_name)) != keccak256(abi.encodePacked(\"\")), \"Cannot have empty app name\");\r\n        require(keccak256(abi.encodePacked(_tagLine)) != keccak256(abi.encodePacked(\"\")), \"Cannot have empty app tagline\");\r\n        require(keccak256(abi.encodePacked(_description)) != keccak256(abi.encodePacked(\"\")), \"Cannot have empty app description\");\r\n        require(keccak256(abi.encodePacked(_icon)) != keccak256(abi.encodePacked(\"\")), \"Cannot have empty app icon\");\r\n        bytes32 _appId = keccak256(abi.encodePacked(_name, _tagLine,_description,_icon));\r\n        require(keccak256(abi.encodePacked(_apkFile)) != keccak256(abi.encodePacked(\"\")) \r\n            || keccak256(abi.encodePacked(_iosFile)) != keccak256(abi.encodePacked(\"\")), \"Cannot have empty apk or ios file\");\r\n        require(_images.length > 0 && keccak256(abi.encodePacked(_images[0])) != keccak256(abi.encodePacked(\"\")), \"Cannot have empty image list\");\r\n        App memory _newApp = idToApp[_appId];\r\n        require(keccak256(abi.encodePacked(_newApp.appId)) != keccak256(abi.encodePacked(_appId)), \"App id already available\");\r\n        \r\n        App memory newApp;\r\n        newApp.appId = _appId;\r\n        newApp.name = _name;\r\n        newApp.tagLine = _tagLine;\r\n        newApp.description = _description;\r\n        newApp.icon = _icon;\r\n        newApp.apkFile = _apkFile;\r\n        newApp.iosFile = _iosFile;\r\n        newApp.images = _images;\r\n        \r\n        idToApp[_appId] = newApp;\r\n        userApps[msg.sender].push(_appId);\r\n        allApps.push(_appId);\r\n        emit NewApp(newApp);\r\n    }\r\n    \r\n    function getApplications() public view returns(bytes32[] memory) {\r\n        return allApps;\r\n    }\r\n    \r\n    function getUserApplications() public view returns(bytes32[] memory) {\r\n        return userApps[msg.sender];\r\n    }\r\n    \r\n    function getAppDetails(bytes32 _appId) public view returns(App memory) {\r\n        return idToApp[_appId];\r\n    }\r\n    \r\n    function getAppImages(bytes32 _appId) public view returns(string[] memory) {\r\n        return idToApp[_appId].images;\r\n    }\r\n    \r\n}",
  "sourcePath": "D:/Documents/myProject/PLAYSTORE/de-store/contracts/Destore.sol",
  "compiler": {
    "name": "solc",
    "version": "0.8.6+commit.11564f7e.Emscripten.clang"
  },
  "schemaVersion": "3.4.1",
  "updatedAt": "2022-09-10T07:16:54.045Z",
  "networkType": "ethereum",
  "devdoc": {
    "kind": "dev",
    "methods": {},
    "version": 1
  },
  "userdoc": {
    "kind": "user",
    "methods": {},
    "version": 1
  }
}